:020000040800F2
:100000007016002049010008090D00086D0C000859
:10001000050D0008F70900088B1300080000000018
:10002000000000000000000000000000090F0008B0
:10003000FB09000800000000910D00081D100008D9
:100040006301000863010008630100086301000800
:1000500063010008630100086301000863010008F0
:1000600063010008630100086301000863010008E0
:1000700063010008630100086301000863010008D0
:1000800063010008630100086301000863010008C0
:1000900063010008630100086301000863010008B0
:1000A00063010008630100086301000863010008A0
:1000B0006301000863010008630100086301000890
:1000C0006301000863010008630100086301000880
:1000D00063010008C91000086301000863010008FB
:1000E0006301000863010008630100086301000860
:1000F0006301000863010008630100086301000850
:10010000630100086301000863010008630100083F
:10011000630100086301000863010008630100082F
:10012000630100086301000863010008630100081F
:10013000DFF810D000F094FB00480047B5A300089A
:10014000AFF300807016002006488047064800473D
:10015000FEE7FEE7FEE7FEE7FEE7FEE7FEE7FEE777
:10016000FEE7FEE7691000083101000840EA0103DC
:100170009B0703D009E008C9121F08C0042AFAD25D
:1001800003E011F8013B00F8013B521EF9D2704721
:10019000D2B201E000F8012B491EFBD270470022C9
:1001A000F6E710B513460A4604461946FFF7F0FF76
:1001B000204610BD421C10F8011B0029FBD1801AFB
:1001C000704710B5002200E0521C835C8C5CA34297
:1001D00001D1002BF8D1D8B2E1B2401A10BD30B530
:1001E00004460020034600E05B1C934203D2E05C1F
:1001F000CD5C401BF8D030BDF0B480EA0102D40FD2
:100200004200B2EB410F02D20246084611464A00B4
:1002100042D0C30DDDB2C1F3C752AD1A202D35DA7D
:10022000C1F3160141F4000204B15242C5F12006A7
:1002300002FA06F12A411044B3EBD05F23D0C4B1D7
:10024000012DA0EBC35009DCF0BC4FF0004202EAE4
:10025000C352DBB200F5000000F01CB9400000F111
:10026000807000EBC350A0F1807040EAD17049006B
:1002700009E0490841EAC071A0EBC35000F5000055
:10028000400800EBC350F0BC00F0FBB86142012213
:1002900002EB4101001BF6E7F0BC704781F0004122
:1002A000AAE780F00040A7E780EA010210B502F05B
:1002B0000043400022D04A001FD0010E01EB126122
:1002C000C0F35600C2F3560240F4000042F40002AC
:1002D000A0FB022000047F39140400D0401C50EA27
:1002E000124001D44000491EC2B20C0604EBD010EB
:1002F000401C4008802A02D003E0002010BD20F0FE
:100300000100002900DA0020184310BD30B480EA53
:10031000010202F0004530F0004221F0004013D00D
:1003200090B1C30DD40DC2F31601C0F31600E41A48
:1003300041F4000140F400027D34914201D3641C79
:1003400000E04900002C02DA30BC002070474FF476
:1003500000000023914201D3891A034340084FEA69
:100360004101F7D151B1914202D14FF0004105E076
:1003700002D24FF0010101E06FF0010103EBC45024
:10038000284430BC00F07DB8C10F80EAE07008441A
:10039000CA079623002100F07DB89623002211465B
:1003A00000F078B800F0004230F000400AD0C10DF3
:1003B00001F56071C0F3160042EA0151C20840071E
:1003C000114370470020014670470000002801DB00
:1003D000C0F10040002901DBC1F1004181427047BA
:1003E000002801DBC0F10040002901DBC1F1004120
:1003F0008842704730B50B46014600202022012478
:1004000009E021FA02F59D4205D303FA02F5491BE2
:1004100004FA02F52844151EA2F10102F1DC30BDF8
:100420002DE9F05F0546002092469B468846064629
:10043000814640241BE0284641464746224600F0BC
:1004400030FA53465A46C01A914110D31146184605
:10045000224600F017FA2D1A67EB01084F46224694
:100460000120002100F00EFA17EB00094E41201E7A
:10047000A4F10104DFDC484631462A464346BDE884
:10048000F09F0029A8BF7047401C490008BF20F01A
:100490000100704710B4B0FA80FC00FA0CF050EA8A
:1004A000010404BF10BC704749B1CCF1200421FA0B
:1004B00004F411FA0CF118BF012121430843A3EB06
:1004C0000C01CB1D4FEA00614FEA102042BF002013
:1004D00010BC704700EBC35010440029A4BF10BCEF
:1004E0007047401C490008BF20F0010010BC704755
:1004F0002DE9FE4F804681EA0300C00F0C460090B4
:1005000021F0004123F00045B8EB0200A94105D2DB
:100510004046214690461C460B46024623F00040CA
:10052000104347D0270DC7F30A00C3F30A510290C6
:10053000401A019040286BDAC3F3130040F4801B8B
:100540000098924620B10023D2EB030A63EB0B0B19
:1005500001985946C0F14002504600F093F9064612
:100560000D4650465946019A00F0ABF910EB0800D1
:100570006141002487EA115284EAE7731A4340D0AC
:10058000009A62B3019A012A4FEA075215DC001B58
:1005900061EB02014FF0004202EA0752CDE900424E
:1005A000001C41F5801132462B4600F0ABF903B038
:1005B000BDE8F08F40462146F9E7001B61EB0201E0
:1005C000001C41F5801300185B412018A2F50017AC
:1005D00047EB030140EAD570B6196D4111E06D0893
:1005E0004FEA360645EAC0754FEA0752001B61EB39
:1005F0000201001C41F5801149084FEA3000001942
:10060000514132462B4603B0BDE8F04F00F06BB9C4
:100610000098012240000023D0EB020263EBE0735C
:10062000009821464FEAE074B8EB000061EB04014A
:10063000E9E783F000435BE781F0004158E72DE9EB
:10064000FE4F81EA030404F0004421F000410094CD
:100650004FF0000B23F0004350EA01045ED052EA51
:1006600003045BD0C3F30A54C1F30A552C44A4F22B
:10067000F3340194A0FB0254C1F3130141F480113F
:10068000C3F3130343F4801301FB024400FB034E46
:10069000840A970A44EA815447EA8357A4FB07680F
:1006A00002958D0A05FB07854FEA932C04FB0C5439
:1006B0002705029D4FEA065847EA1637B5EB0805AD
:1006C0006EEB070C870E920E47EA811742EA8312FF
:1006D000A7FB0201B6EB0B0164EB00042B0D43EA10
:1006E0000C335E1844EB1C50DA465146E7FB02011E
:1006F000C5F313044FEA0B3343EA14534FEA0432B1
:10070000019C43EA0603A4F10C040294009CCDE989
:1007100000B400F0F7F803B0BDE8F08F0020014608
:10072000F9E72DE9F04D81EA030404F0004B21F0D4
:10073000004514464FF0000A23F0004150EA05023C
:1007400020D054EA01021DD0C5F30A570246C5F372
:100750001303C1F31300C1F30A5640F4801543F4A8
:100760008013A7EB0608101BD64608F2FD3873EB82
:10077000050002D308F1010801E092185B41B8F1CD
:10078000000F03DA00200146BDE8F08D00204FF491
:100790008011064684460EE0171B73EB050705D350
:1007A000121B63EB050306434CEA010C49084FEAB0
:1007B000300092185B4150EA0107EDD152EA030084
:1007C00012D082EA040083EA0501084305D0101B19
:1007D000AB4106D20122002306E000224FF0004385
:1007E00002E06FF0010253101AEB06004CEB0851C7
:1007F00010EB0A0041EB0B01BDE8F04D00F073B8BF
:10080000C1F30A52C1F3130140F2FF3341F48011E6
:100810009A4202DA00200146704740F233439A427E
:10082000A2F2334202DC524200F03BB800F02AB898
:1008300030B5041E71F1000404DB4FF00044404267
:1008400064EB0101141E73F1000405DB1C464FF03C
:100850000043524263EB0403994208BF904230BD0B
:10086000064C074D06E0E06840F0010394E80700FD
:1008700098471034AC42F6D3FFF75EFC8CB000080A
:10088000ACB00008202A04DB203A00FA02F1002074
:1008900070479140C2F1200320FA03F319439040BE
:1008A0007047202A04DB203A21FA02F00021704729
:1008B00021FA02F3D040C2F12002914008431946C8
:1008C0007047202A06DBCB17203A41FA02F043EAB0
:1008D000E07306E041FA02F3D040C2F120029140F9
:1008E00008431946704710B5141E73F1000408DA66
:1008F000401C41F1000192185B411A4301D120F0E4
:10090000010010BD2DE9F04D92469B4611B1B1FAA0
:1009100081F202E0B0FA80F220329046FFF7B2FF97
:1009200004460F4640EA0A0041EA0B0153465A4684
:10093000084313D0114653EA010019D0C8F1400210
:100940005046FFF7AEFF05460E4650465946424612
:10095000FFF798FF084305D0012004E02046394600
:10096000BDE8F08D0020054346EAE0762C4337438E
:100970000A986305E40AA0EB08000022FD0A44EA95
:1009800047540A3002D500200146E9E70105101955
:100990006941DDE9084500196941BDE8F04DA2E76C
:1009A00070B58C1810F8015B15F0070301D110F831
:1009B000013B2A1106D110F8012B03E010F8016B5E
:1009C00001F8016B5B1EF9D12B0705D40023521EE1
:1009D0000DD401F8013BFAE710F8013BCB1A921C49
:1009E00003E013F8015B01F8015B521EF9D5A14247
:1009F000D8D3002070BD00BFFEE770470149C86032
:100A0000704700000020024030B5044604254FF432
:100A1000302000F085F80546042D17D10C480069F8
:100A200040F002000A49086108464461006940F04C
:100A3000400008614FF4302000F072F80546044889
:100A4000006941F6FD71084001490861284630BD42
:100A50000020024004200B49C96801F0010109B1DE
:100A600001200EE00749C96801F0040109B1022024
:100A700007E00449C96801F0100109B1032000E052
:100A800004207047002002400348006940F08000C5
:100A900001490861704700000020024078B5064611
:100AA0000C46042500200090E80200F039F80546C5
:100AB000042D24D11348006940F001001149086158
:100AC0003480E80200F02CF80546042D10D1B01C4B
:100AD0000090200C00990880E80200F021F80546FB
:100AE0000848006941F6FE7108400649086106E0C1
:100AF0000448006941F6FE71084002490861284631
:100B000078BD0000002002400248034948600348C5
:100B1000486070472301674500200240AB89EFCD54
:100B200000B502460423FFF795FF034603E0FFF7F5
:100B300091FF0346521E012B01D1002AF7D102B9C1
:100B40000523184600BD2DE9F04102460025002688
:100B5000002000230024002791F803C00CF00F05AB
:100B600091F803C00CF0100CBCF1000F03D091F809
:100B700002C04CEA050591F800C0BCF1000F31D06D
:100B8000146800202BE04FF0010C0CFA00F3B1F8D0
:100B900000C00CEA03069E4220D183004FF00F0CE8
:100BA0000CFA03F7BC4305FA03FC4CEA040491F881
:100BB00003C0BCF1280F06D14FF0010C0CFA00FC69
:100BC000C2F814C00AE091F803C0BCF1480F05D187
:100BD0004FF0010C0CFA00FCC2F810C0401C0828B1
:100BE000D1D31460B1F800C0BCF1FF0F34DD5468FC
:100BF00000202EE000F1080C4FF0010808FA0CF379
:100C0000B1F800C00CEA03069E4221D183004FF0E8
:100C10000F0C0CFA03F7BC4305FA03FC4CEA04047E
:100C200091F803C0BCF1280F05D100F1080C08FAB7
:100C30000CF8C2F8148091F803C0BCF1480F07D13A
:100C400000F1080C4FF0010808FA0CF8C2F8108007
:100C5000401C0828CED35460BDE8F0810161704784
:100C600001480068704700003000002000BFFEE728
:100C700030B5144800684FF47A72B0FBF2F1B1F16C
:100C8000807F00D31DE021F07F40401E4FF0E02226
:100C9000506150170F22002807DA13071D0E0A4B68
:100CA00000F00F04241F1D5503E013071C0E074B13
:100CB0001C5400BF00204FF0E0229061072010611B
:100CC00000BF30BD1400002018ED00E000E400E09B
:100CD00008B50121102000F05DF8FF20ADF80000FC
:100CE00010208DF8030003208DF8020069460448A7
:100CF000FFF729FFFF210248FFF7B0FF08BD000002
:100D00000010014000BFFEE77047000070B50021F1
:100D100000230F22C47804B3154C246804F4E06463
:100D2000C4F5E064210AC1F10403CA40447804FA1E
:100D300003F184781440214309010E4C0678A15533
:100D4000047804F01F050124AC4005786D11AD0056
:100D500005F1E025C5F8004109E0047804F01F051D
:100D60000124AC40044D0678761145F8264070BD4C
:100D70000CED00E000E400E080E100E00249014306
:100D8000024A1160704700000000FA050CED00E017
:100D90007047000029B1064A92690243044B9A61E8
:100DA00004E0034A92698243014B9A617047000054
:100DB0000010024030B500210022002400232D4DF8
:100DC0006D6805F00C0121B1042905D0082923D153
:100DD00005E0294D056022E0274D05601FE0254D07
:100DE0006D6805F47012234D6D6805F4803402259A
:100DF00005EB92421CB9214D554305600BE01D4D9A
:100E00006D6805F400351DB11C4D5543056002E0C9
:100E1000194D5543056002E0174D056000BF00BF46
:100E2000144D6D6805F0F0010909154D6B5C0568FE
:100E3000DD4045600F4D6D6805F4E061090A104D15
:100E40006B5C4568DD4085600A4D6D6805F4605156
:100E5000C90A0B4D6B5C4568DD40C560054D6D688A
:100E600005F44041890B074D6B5CC568B5FBF3F594
:100E7000056130BD0010024000127A0000093D00FB
:100E800000000020100000202DE9F04707468846AA
:100E900000BFDFF870A09AF80000532801D000F0DE
:100EA00077FA00BFEFF311810846202181F3118802
:100EB00000BF00BF07EB47021249183101EBC20423
:100EC000E1684D1CA168A94200D100256169022991
:100ED00003D100BF2169A942FCD02169A94208D0F1
:100EE000E268616801EB020989F80080E56001268B
:100EF00000E00026C1B281F3118800BF00BF304678
:100F0000BDE8F0879C010020704710B500F002F8A2
:100F100010BD00000CB5002001900090334800681F
:100F200040F480303149086000BF3048006800F468
:100F3000003000900198401C0190009818B9019869
:100F4000B0F5A06FF1D12948006800F4003010B16D
:100F50000120009001E0002000900098012843D17A
:100F60002348006840F010002149086008460068E6
:100F700020F0030008600846006840F002000860A6
:100F80001A48406819494860084640684860084661
:100F9000406840F4806048600846406820F47C1057
:100FA00048600846406840F4E81048600846006819
:100FB00040F08070086000BF0C48006800F00070CE
:100FC0000028F9D00948406820F00300074948602C
:100FD0000846406840F00200486000BF034840688F
:100FE00000F00C000828F9D10CBD000000100240F0
:100FF00000200240042808D14FF0E021096941F0A7
:1010000004014FF0E022116107E04FF0E02109698F
:1010100021F004014FF0E02211617047024800689E
:10102000401C0149086070473000002010B504469C
:101030006FF00400FFF7DEFFE11704EB5171C1F31D
:10104000C701074A11701046007800EB4001C1EB60
:10105000C0104FF6FF7101EAC0000249088010BDC0
:10106000280000202A00002010B51348006840F036
:1010700001001149086008464068104908400E49BF
:101080004860084600680E4908400B490860084659
:10109000006820F4802008600846406820F4FE00C4
:1010A00048604FF41F008860FFF72FFF4FF000608B
:1010B0000449086010BD0000001002400000FFF865
:1010C000FFFFF6FE08ED00E010B540F225510C4898
:1010D00000F096F870B10A4800F04EF9C4B221460B
:1010E000074800F04EF900BF4021054800F07BF8AA
:1010F0000128F9D14021024800F060F810BD00003D
:101100000038014010B586B0044601210420FFF7E5
:1011100041FE01218803FFF73DFE01210846FFF74C
:1011200039FE4FF40070ADF8140003208DF816005E
:1011300018208DF8170005A91E48FFF704FD4FF48D
:101140008060ADF8140004208DF8170005A9194837
:10115000FFF7F9FC01940020ADF80800ADF80A0093
:10116000ADF80C00ADF810000C20ADF80E0001A990
:10117000114800F095F801210F4800F028F84021AF
:101180000D4800F01BF8012240F225510A4800F0FA
:1011900061F825208DF8000003208DF801008DF8FE
:1011A000020001208DF803006846FFF7AFFD06B08E
:1011B00010BD0000000801400038014001F4007239
:1011C000B2F5007F00D100BFCA430280704721B151
:1011D000828942F40052828104E082894DF6FF73D5
:1011E0001A408281704702460020B1F5007F00D18D
:1011F00000BF13880B400BB1012000E000207047B6
:1012000070B50246002400230025002040F66A162F
:10121000B14200D100BFC1F3421501F01F03012606
:1012200006FA03F3012D02D19689334006E0022D20
:1012300002D1168A334001E0968A33400C1201260F
:1012400006FA04F41688344013B10CB1012000E012
:10125000002070BDF0B503460024002600250020C4
:1012600040F66A17B94200D100BF1846C1F34214D4
:1012700001F01F06012707FA06F5012C01D10C30F9
:1012800004E0022C01D1103000E014301AB10768DC
:101290002F43076002E00768AF430760F0BD00001E
:1012A0002DE9F04786B005460E460024A24600BF51
:1012B000A1460027B08900B100BF2F462C8A4CF60A
:1012C000FF700440F08804432C82AC894EF6F31082
:1012D0000440B08831890843718908430443AC81D4
:1012E000AC8A4FF6FF400440B0890443AC8201A8A9
:1012F000FFF760FD1F48874202D1DDF810A001E032
:10130000DDF80CA0A88900F4004040B10AEBCA0047
:1013100000EB0A1031684900B0FBF1F807E00AEB76
:10132000CA0000EB0A1031688900B0FBF1F86420B4
:10133000B8FBF0F004012009642101FB1089A889A1
:1013400000F4004040B1322000EBC900B0FBF1F0E6
:1013500000F00700044308E0322000EB091064218C
:10136000B0FBF1F000F00F0004432C8106B0BDE8A3
:10137000F08700000038014001468888C0F308006B
:101380007047C1F308028280704700BFFEE700008B
:1013900070B5154CA8212046FEF701FF03202061FF
:1013A000606112A0A0611449E1614FF48061216283
:1013B0000021A16261620121E1620CA020660F4957
:1013C00061661021A16600212167E1660121616744
:1013D000002505E0C5F10F000949085C60556D1C4A
:1013E000102DF7D370BD00009C0100205465726D74
:1013F000696E616C00000000440200204406002079
:10140000ECA600080FB4054B10B503A9044A0298D6
:1014100000F02AFE10BC5DF814FB000089A3000850
:10142000980100200FB47CB50C0009AD01D0611EFD
:1014300000E00021CDE90001064B6A4629460898E4
:1014400000F012FE002C02D0009A002111707CBC2A
:101450005DF814FBED2A000802E008C8121F08C15D
:10146000002AFAD170477047002001E001C1121F25
:10147000002AFBD17047000010B50446042C42DA64
:1014800004EB44002C4951F820204FF4006321461E
:101490002AA0FFF7B7FF04EB4401274A52F82100C6
:1014A0004FF4006108F0F2FC00283AD104EB44014B
:1014B000214A02EB810148714FF4FC6004EB4401C6
:1014C00002EB81010881002004EB440102EB810161
:1014D00048812A4850F82400401C284941F824003B
:1014E00008460069401C0861084650F82400496914
:1014F000884206D9214850F824002049486108460E
:101500000476002010BD21461DA0FFF77BFF00BF21
:101510004FF4B26323A22AA12AA0FFF773FF00BFF2
:10152000FEE700BF40F292531EA225A125A0FFF7BF
:1015300069FF00BFFEE7000060010020456D6265A5
:1015400064646564466C6173683A204572617369CE
:101550006E6720736563746F722025642061742048
:1015600061646472657373203078253038582C209C
:1015700073697A653D25640A000000005406002066
:10158000657261736520736563746F72206661694B
:101590006C65642C20736563746F725F6964783D59
:1015A00025640A004150505C666C6173685C456D4F
:1015B000626564646564466C6173682E6300000054
:1015C0003000000045464C4153482041535345529A
:1015D00054204641494C45443A2025732C206669E5
:1015E0006C652025732C206C696E652025640A00CB
:1015F0002DE9F04F97B005460C461746984622460F
:1016000029466C48FFF7FEFE424639466AA0FFF7BE
:10161000F9FE464604EB4400764951F8200000F5F7
:10162000006BB94605EB450051F8200000F500605D
:1016300016900020159070A0FFF7E4FE88E02021AE
:101640000DA8FEF7ACFD2022314673A0FFF7DAFEAD
:1016500020220DA9304608F097FC002873D10DA870
:1016600000F0EFFC00F0FF0ABDF852009DF84510B5
:101670009DF84720CDE9002102909DF846209DF875
:10168000441053467048FFF7BDFE0DA800F036FC2D
:1016900000284ED0BAF1020F4BD19DF847209DF89B
:1016A0004610334669A0FFF7ADFE09F120001699F8
:1016B000884205D972A0FFF7A5FE022015904CE0E4
:1016C00049467AA0FFF79EFE20220DA905A8FEF745
:1016D0004DFD00200490E8B204AA05A901F05AFBD0
:1016E00020B14FF0FF3017B0BDE8F08F02226946FD
:1016F000049800F0ADFC48B100BF40F2E25376A27E
:101700007CA17DA0FFF77EFE00BFFEE7304600F023
:1017100083FC48B100BF4FF4BD636FA275A176A0F2
:10172000FFF770FE00BFFEE709F1200901201590C8
:1017300007E09DF847309DF84610524679A0FFF724
:1017400061FE04E0FFE7314681A0FFF75BFE203633
:1017500006F120005845FFF472AF00BF05EB4500CD
:10176000244901EB80000089202801D20220159035
:10177000159AD1B2E8B2012201F0E4F8E0B2FFF725
:101780007BFE10B14FF0FF30ADE7E0B20322002145
:1017900001F0D8F84FF4FC6004EB4401154A02EB69
:1017A00081010881002004EB440102EB81014881A2
:1017B00000BF98E710AF000847432054656D7020C4
:1017C000456D70747920416464726573733D30783F
:1017D00025782C2044617461204743696E6720524C
:1017E0006573756D6520416464726573733D30780F
:1017F00025780A00600100205374617274696E6775
:101800002064617461206D6967726174696F6E2014
:10181000666F722047430A0047433A20526561646D
:10182000696E67207265636F726420617420616401
:1018300064726573733D3078253038582C20736995
:101840007A653D25640A0000F0AD00084D696772B5
:101850006174696E67207265636F72643A204B65CC
:10186000793D25642C204C656E6774683D25642C99
:1018700020416464726573733D256C750A00000035
:1018800047432054656D7020736563746F722066E2
:10189000756C6C2C2073746F7070696E67206D6945
:1018A00067726174696F6E0A000000005772697494
:1018B000696E6720746F2047432054656D702073F4
:1018C0006563746F72206174206164647265737300
:1018D0003D256C750A0000004150505C666C6173D8
:1018E000685C456D626564646564466C6173682E0E
:1018F000630000003000000045464C415348204141
:101900005353455254204641494C45443A2025738F
:101910002C2066696C652025732C206C696E65200F
:1019200025640A00676320696E76616C69642072C1
:1019300065636F72642C6B65793A25642C737461EE
:101940007475733A25642C6C656E3A25640A000040
:101950004661696C656420746F20726561642072F1
:1019600065636F726420617420616464726573736F
:101970003D256C750A00000002460E48006810B153
:101980000D48007808B90020704700210CE0094894
:10199000006800EB01100079904204D1054800680E
:1019A00000EB0110F0E7491C034800788142EEDBB0
:1019B0000020E9E790010020940100202DE9F04F7C
:1019C00089B004460D469046D4F80090202229465E
:1019D000484608F0D9FA48B1227949465DA0FFF798
:1019E00011FD4FF0FF3009B0BDE8F08F284600F040
:1019F00085FA00287BD12279494665A0FFF702FDD0
:101A0000002670E006EB46006E4901EB800080790D
:101A1000012806D006EB460001EB800080790428FF
:101A200060D106EB4600674951F8200000F120071D
:101A300006EB460051F8200000F5006A2279314695
:101A400061A0FFF7DFFC48E0202101A8FEF7A7FB1B
:101A5000202201A9384608F097FA00283BD101A8B6
:101A600000F0EFFA00F0FF0B01A800F047FA0028A1
:101A700030D09DF81600217988422BD1BBF1020F9E
:101A800028D1C8F80070202201A92846FEF76EFB75
:101A9000217933463A4654A0FFF7B4FC2760E87C2E
:101AA0000A2809DD00BF40F2CD435EA264A165A013
:101AB000FFF7A8FC00BFFEE7E87C2073687C60733A
:101AC0000420A073EA7C05F11401A068FEF74EFB28
:101AD000002088E700BF203700BF07F120005045F5
:101AE000B2D300BF761C042E8CDB217900E005E028
:101AF0005FA0FFF787FC4FF0FF3074E7C8F8009055
:101B0000227B05F11400A168FEF769FB00B106E035
:101B1000687C617B884200D001E0002063E7E87CBC
:101B20000A2809DD00BF40F2EF433EA244A145A0D0
:101B3000FFF768FC00BFFEE7E87C2073687C6073F9
:101B40000420A073EA7C05F11401A068FEF70EFBE7
:101B5000002048E74661696C656420746F207265F7
:101B60006164207265636F72642061742073746FA6
:101B700072656420616464726573733D30782578A2
:101B800020666F72206B65793D25640A00000000B5
:101B9000496E76616C6964207265636F726420615E
:101BA000742073746F72656420616464726573730A
:101BB0003D3078257820666F72206B65793D25640D
:101BC0000A000000600100205363616E6E696E6759
:101BD00020736563746F7220256420666F72206BBA
:101BE00065793D25640A0000466F756E64206C615E
:101BF00074657374207265636F726420666F7220FF
:101C00006B65793D2564206174206164647265733D
:101C1000733D256C6420696E20736563746F723D3B
:101C200025640A004150505C666C6173685C456DC8
:101C3000626564646564466C6173682E63000000CD
:101C40003000000045464C41534820415353455213
:101C500054204641494C45443A2025732C2066695E
:101C60006C652025732C206C696E652025640A0044
:101C70004E6F2076616C6964207265636F726420B8
:101C8000666F756E6420666F72206B65793D2564A2
:101C9000206166746572207363616E6E696E672081
:101CA000616C6C20736563746F72730A00000000CE
:101CB0000146032009E000EB4002064B03EB8202E1
:101CC00092798A4200D17047401E0028F3DA4FF023
:101CD000FF30F8E76001002070B504460320FFF7ED
:101CE000E7FF0546002D2BDB002127E06B1C5A186F
:101CF000D31702EB93739B10A2EB8303D8B200EBD4
:101D00004002114B03EB82021289A24215DB00EB69
:101D1000400203EB82025279012A05D000EB400217
:101D200003EB8202527942B900EB4002064B03EB0F
:101D300082029279012A00D170BD491C0329D5DBAA
:101D40004FF0FF30F8E70000600100202DE9FF5F51
:101D500082B00021DDE90430020DDDF840B003431C
:101D600018D044F61050A2F2FF32424315141198D5
:101D700001281FD0A5EB0B00401C5FEA000A4FF0C2
:101D800000064E4FDFF83891B046504615D5CAF1DF
:101D9000000413E0119801244AA3012801D16FEA3D
:101DA0000B010298119AC0E90031C0E9024206B065
:101DB000BDE8F09FCBF10000DFE704460021404A78
:101DC000491842EB0450CDE9001012E0E00707D0BB
:101DD00032463B4640464946FEF731FC804689463E
:101DE00032463B4610461946FEF729FC06460F468A
:101DF0006410002CEAD1DDE90401DDE90023BAF129
:101E0000000F06DAFEF71BFC42464B46FEF717FCB6
:101E100005E0FEF786FC42464B46FEF782FC044690
:101E20000E460022284BFEF703FD03D84FF0FF308B
:101E3000014607E00022254B20463146FEF758FBBD
:101E4000FEF7DEFC102409E0002C0ADB0A22002346
:101E5000FEF7E6FA039B30321A55641E50EA01027F
:101E6000F2D1641C039AC4F111031444119A012A9B
:101E700003D0012208430DD10AE0084304D000201A
:101E80004FF0110B119072E7A3EB0B056D1E0DE0E7
:101E90005B4504DD4FF0000205F1010504E003DAC3
:101EA0004FF00002A5F10105002AECD0029811992B
:101EB000C0E90231C0E9004579E7000000001440A4
:101EC0000000F03F300000000000F0430000E03F61
:101ED00030B502460023481E0146044606E048018C
:101EE00002EBD000007800B904E05B1C081EA1F1F1
:101EF0000101F4D100BFE01A30BD0000FEB5044678
:101F000024B91BA0FFF77EFA0020FEBD207CA52887
:101F100006D0217CA5221FA0FFF774FA0020F4E769
:101F2000E07C10B1E07C0A2806DDA27CE17C27A0E1
:101F3000FFF768FA0020E8E70C2104F1120001F035
:101F400010F80546E08BA84210D0204600F079F842
:101F5000C6B2E08B617CCDE900150290E37CA17CE8
:101F600032462648FFF74EFA0020CEE70120CCE7A4
:101F70005F69735F6B765F7265636F72643A204E60
:101F8000554C4C207265636F726420706F696E747B
:101F900065720A005F69735F6B765F7265636F726B
:101FA000643A20496E76616C6964206D616769638B
:101FB0003D3078253032582C206578706563746523
:101FC000643D3078253032580A0000005F69735F45
:101FD0006B765F7265636F72643A20496E76616CEE
:101FE00069642076616C75655F6C656E6774683DC9
:101FF00025642C206B65793D25640A004CAE0008F1
:1020000001468869034A904201D0002070470120B0
:10201000FCE70000454634307FB505460024032226
:102020006946284600F014F8044614B1204604B06E
:1020300070BD04226946284600F00AF8044620468E
:10204000F5E710B5044605212046FFF741FF10BD16
:1020500070B505460E4614462346052231462846ED
:1020600000F064FF70BD00002DE9FF4F95B09A4667
:10207000884606460025EEE1252877D1002427462C
:10208000F94A0121039400E0044316F8013F203B84
:1020900001FA03F01042F7D130782A2811D06FF0FE
:1020A0002F033078A0F13002092A16D8039A44F0A1
:1020B000020402EB820203EB42021044761C0390FE
:1020C000EFE758F8042B0392002A03DA504244F455
:1020D0000054039044F00204761C30782E2816D168
:1020E00016F8010F44F004042A280DD06FF02F02D7
:1020F0003078A0F13003092B09D807EB870302EBF6
:102100004303C718761CF3E758F8047B761C307835
:102110006C280FD006DC4C2817D068280DD06A2810
:1021200014D104E0742810D07A280FD10DE044F4C3
:1021300000140AE044F4801401E044F4401472787E
:10214000824202D104F58014761C761C3078662811
:102150000BD013DC582877D009DC002875D045282F
:10216000F6D04628F4D047281AD193E118E0632826
:1021700035D0642879D0652812D18BE1702873D0CE
:1021800008DC6728F1D069286FD06E280DD06F2841
:1021900006D1ACE073282CD0752874D0782853D0A1
:1021A0005246179990476D1C54E1C4F3025002281F
:1021B00009D003280DD0D8F8001004280DD00D60E8
:1021C00008F1040846E1D8F80010EA17C1E9005206
:1021D000F6E7D8F800100D80F2E70D70F0E718F878
:1021E000041B8DF8001000208DF80100EB46012043
:1021F00003E058F804BB4FF0FF3061074FF00001D7
:1022000002D40DE009F101018946B9420FDA814596
:10221000F8DB1BF809100029F4D108E009F10101ED
:1022200089468142FADB1BF809100029F6D1039890
:102230005346A0EB090721463846179A00F080FA6A
:10224000284400EB090507E044E008E10DE01BF835
:10225000010B524617999047B9F10109F7D253463D
:1022600021463846179AF2E039E00A21C4F30252B7
:102270004FF0000B0091022A06D058F8040BC1174A
:10228000032A09D00AE023E008F1070020F0070242
:10229000F2E80201904605E000B2C117042A01D11C
:1022A00040B2C117002906DA0A460021404261EB1C
:1022B00002012D2202E0220504D52B228DF80420F4
:1022C000012203E0E20701D02022F7E7914657E020
:1022D0000A2100E010214FF0000B00910BE01021CB
:1022E0004FF0000B44F004040827009103E008209D
:1022F0004FF0000B0090C4F30252022A05D058F8A8
:10230000040B0021032A08D008E008F1070020F0A0
:102310000702F2E80201904603E080B2042A00D1ED
:10232000C0B24FF0000922072AD53278702A07D0B0
:10233000DDF800C08CF0100C5CEA0B0C05D00EE050
:1023400040228DF80420012208E050EA010306D063
:1023500030238DF804308DF8052002229146009B31
:1023600083F0080353EA0B030AD150EA010201D1BA
:10237000620705D530228DF804204FF001097F1E39
:102380003278582A04D039A20C920CAA02920BE09F
:102390003BA2F9E75B46009AFEF742F80C9B9B5C78
:1023A000029A521E0292137050EA0102F2D1029870
:1023B00004A9081A00F1200B600702D524F4803428
:1023C00000E001275F4502DDA7EB0B0000E00020E5
:1023D00000EB0B01009003984944401A0390E0037E
:1023E00006D453462146179A039800F0A9F90544EC
:1023F000002706E001A85246C05D179990476D1C62
:102400007F1C4F45F6DBE0030CD553462146179A57
:10241000039800F095F9054404E0302052461799DE
:1024200090476D1C0099481E00900029F5DC08E0DB
:102430000298029952460078491C029117999047D8
:102440006D1CBBF10001ABF1010BF1DC5BE100F0B5
:1024500065F90544761C307800287FF40DAE19B07C
:102460002846BDE8F08F00000928010030313233E2
:1024700034353637383961626364656600000000C0
:1024800030313233343536373839414243444546AA
:1024900000000000600700D4062708F1070020F0C4
:1024A0000700F0E80223804603F0004C5FEA0C00CE
:1024B00001D097A009E0200501D596A005E0E0072E
:1024C00001D095A001E0AFF24C001390307823F0DA
:1024D000004365280CD006DC452809D046281DD0CD
:1024E00047287FD13BE0662818D067287AD136E0AC
:1024F0000021112F01DB112000E0781CCDE9000143
:1025000004A90CA8FFF722FCDDE90D010C9A4FF09D
:10251000000B07F10109109200914EE04FF00040CE
:102520000097CDE9011004A90CA8FFF70FFCDDE925
:102530000D020C9B0F994FF0000B914610930092E7
:1025400011B9791C00EB0109B7EB090003D4C0F104
:10255000FF3B07F10109A9EB0700019042E0012FC1
:1025600000DA01270021112F01DD112000E038469B
:10257000CDE9000104A90CA8FFF7E8FBDDE90D0196
:102580000C9A00914FF0000BB946109221070FD41E
:10259000009A4A4503DA914601E0A9F10109B9F12F
:1025A000010F05DD109AA9F10101515C3029F4D029
:1025B000B84202DA10F1040F03DA0121CDE901106B
:1025C00010E0002803DC8344A9EB000102E0411C79
:1025D000494500DD8946A0EB0B00401C01904FF0FF
:1025E00000400290200705D40198484502DB4FF0D7
:1025F000FF30019000208DF84B0002980DF14B0741
:10260000B0F1004F25D002200C902B200D900298A5
:1026100000280CDA404202902D200D9007E00A219C
:102620000298FDF7E7FE3031029007F8011D0C9982
:10263000481E0C900029F2DC02980028EFD1791E88
:102640000D980870307800F0200040F0450007F841
:10265000020D11A8C01BC01D02901398007800B194
:10266000012000EB0901019801EBE071029801449F
:102670000398401A401E0390E00306D453462146B7
:10268000179A039800F05CF805441398007818B185
:102690005246179990476D1CE00323D553462146B7
:1026A000179A039800F04CF805441BE0BBF1000FAB
:1026B00007DB0098584504DD1098179910F80B00B7
:1026C00001E0179930205246904701980BF1010B19
:1026D000401E05F10105019004D12E2052461799A4
:1026E00090476D1CB9F10001A9F10109DEDC05E09C
:1026F00017F8010B5246179990476D1C0299481E16
:1027000002900029F4DC53462146179A03989EE66E
:102710002D0000002B000000200000002DE9F041FA
:10272000044600251E461746880404D405E03946B1
:102730002020B0476D1C641EF9D52846BDE8F08105
:102740002DE9F041044600251E469046C80301D5F8
:10275000302700E02027880404D505E041463846AC
:10276000B0476D1C641EF9D52846BDE8F081000015
:102770002DE9F04389B0044604EB4400554901EBD0
:1027800080008079032815D14FF4FC6004EB4401EC
:10279000504A02EB81010881002004EB440102EB66
:1027A0008101488104EB440102EB8101487109B0C9
:1027B000BDE8F08304EB4400464951F8200000F1E5
:1027C000200504EB440051F8200000F500680027C4
:1027D0004BE0202101A8FDF7E2FC202201A92846B8
:1027E00007F0D2FB00283ED101A8FFF787FB50B3CA
:1027F0009DF81600FFF7C0F806460EB301A8FFF7D4
:1028000020FC00F0FF09B9F1040F05D0B9F1030F66
:1028100002D0B9F1010F03D1781C87B2203524E032
:1028200035609DF8170030739DF815007073022015
:10283000B0739DF8172006A9B068FDF797FC00BF9C
:10284000781C87B20FE0012101AA002005E0135C8B
:10285000FF2B01D0002102E0401C2028F7D300BF4D
:1028600001B106E000BF203500BF05F12000404562
:10287000AFD300BFA8EB050004EB4401154A02EBFF
:102880008101088104EB4400114601EB800047817F
:1028900004EB440001EB80000089202806D20220CE
:1028A00004EB440102EB8101487110E0002F07DDC9
:1028B000012004EB4401074A02EB8101487106E064
:1028C000002004EB4401034A02EB8101487100201F
:1028D0006DE700006001002070B504460D46042C31
:1028E0002BDA55B304EB4400154951F8206020223F
:1028F0002946304607F048FBF0B92846FFF780FB31
:1029000010B94FF0FF3070BD03212846FFF7E0FA01
:1029100004EB44010A4A02EB81014871052105F1EB
:102920000800FFF7D5FAC1B204EB4400044A02EBF9
:10293000800081710020E6E700BF4FF0FF30E2E742
:10294000600100202DE9F04190B004460D46164686
:102950000027042C03DB781E10B0BDE8F08104EBE7
:102960004400414951F82080202108A8FDF717FCB8
:1029700008A92046FFF7B0FF002842D104EB44002D
:10298000394901EB80004079A84217D02B46032239
:1029900006A9404600F0CAFA07464FB100BF40F210
:1029A000726332A238A139A0FEF72CFD00BFFEE70A
:1029B00004EB44002C4901EB8000457104EB44001A
:1029C000294901EB80008079B04218D033460522B6
:1029D00002A908F1080000F0A9FA07464FB100BFAC
:1029E00040F27C6321A228A128A0FEF70BFD00BFC6
:1029F000FEE704EB44001C4901EB800086710020D7
:102A0000AAE7FF2220216846FDF7C2FB2A460321E0
:102A1000684600F053F83246052102A800F04EF84F
:102A2000254806904FF0FF30079020226946404627
:102A300007F06AFC074667B904EB44000A4901EB5A
:102A40008000457104EB440001EB8000867100209A
:102A500082E700BF00BF40F2996304A20AA10BA065
:102A6000FEF7D0FC00BFFEE7600100204150505C43
:102A7000666C6173685C456D626564646564466C30
:102A80006173682E630000003000000045464C4131
:102A9000534820415353455254204641494C4544E4
:102AA0003A2025732C2066696C652025732C206CD8
:102AB000696E652025640A00454634302DE9F041F1
:102AC00005460E4614464FF0FF37701E072202EBF4
:102AD0004010C108FF222846FDF75AFB1CB1601EBA
:102AE00087000020E8553846BDE8F0814A68002A92
:102AF00006D00A68531C0B6010704868401E48607E
:102B00007047000010B58EB000247CE0414800689A
:102B100000EB0410807B002874D1FF22202106A83E
:102B2000FDF736FBA5208DF828003A48006800EB39
:102B30000410407B8DF829003648006800EB041033
:102B400000798DF82A003348006800EB0410007B00
:102B50008DF82B002F48006800EB0410007B0A283A
:102B600011DD2C48006800EB041003792948006847
:102B700000EB0410017B0A222748FEF743FC4FF0CC
:102B8000FF300EB010BD0A210BA8FDF708FB21484D
:102B9000006800EB0410027B1E48006800EB041084
:102BA00081680BA8FDF7E2FA0C210DF12A0000F074
:102BB000D8F9ADF836000020059005A906A800F068
:102BC000D1F810B14FF0FF30DBE7022201A90598E0
:102BD000FFF73EFA48B100BF40F2A2430FA216A190
:102BE00016A0FEF70FFC00BFFEE70A49059809682A
:102BF00001EB0411086001200649096801EB04118A
:102C0000887300BF641C184800788442FFF67EAFCA
:102C10000020B6E79001002098AF00084150505CBA
:102C2000666C6173685C456D626564646564466C7E
:102C30006173682E630000003000000045464C417F
:102C4000534820415353455254204641494C454432
:102C50003A2025732C2066696C652025732C206C26
:102C6000696E652025640A009401002070B5002477
:102C70000FE02046FEF700FC054601220021204619
:102C8000FFF760FE054315B14FF0FF3070BD601CCB
:102C9000C4B2032CEDDB032200211046FFF752FEE5
:102CA000F4E770B588B00026002421E020216846B2
:102CB000FDF775FAE0B26946FFF70EFE00B116E0C7
:102CC000052102A8FFF704F9C5B2032D01D0022D9A
:102CD00008D1601CC11700EB91718910A0EB810134
:102CE000CEB207E0042D01D1E6B203E000BF641CC0
:102CF000042CDBDB00BF00240AE03019C11700EB15
:102D000091718910A0EB81052846FFF731FD641C05
:102D1000042CF2DB002008B070BD000010B588B0B4
:102D2000002418E020216846FDF739FAE0B2694630
:102D3000FFF7D2FD68B1002004EB4401084A02EB22
:102D400081014871002104EB440002EB8000817195
:102D500000E000BF641C042CE4DB08B010BD0000E0
:102D60006001002070B504460D46002600BF2020FB
:102D7000FEF7B2FF0646002E06DA05F05FFD10B141
:102D80004FF0FF3070BDF2E7F0B22A46214600F066
:102D900001F8F7E72DE9F041044688461546042C72
:102DA00003DAB8F1000F00D01DB94FF0FF30BDE8D5
:102DB000F08104EB4400404901EB800000892028A9
:102DC00002D24FF0FF30F2E704EB44003A4951F8E9
:102DD0002000203004EB4401374A02EB81010989CD
:102DE000C1F5FC61461820224146304607F08CFAB6
:102DF00048B100BF4FF4A26330A237A137A0FEF75D
:102E000001FB00BFFEE704EB44002B4901EB80000F
:102E10004779012004EB4401274A02EB8101487104
:102E200004EB4400114601EB80004089401C04EB98
:102E3000440102EB8101488104EB4400114601EB9F
:102E400080000089203804EB440102EB81010881F5
:102E500004EB4400114601EB80000089202805D2D4
:102E6000022004EB440102EB8101487104EB4400B1
:102E7000114901EB80004079B8421AD004EB4400BC
:102E800001EB8000427939461FA0FEF7BBFA04EB44
:102E90004400094B03EB8000827904EB440003EB10
:102EA000800041792046FFF74DFD10B14FF0FF3013
:102EB0007DE72E6000207AE7600100204150505CE1
:102EC000666C6173685C456D626564646564466CDC
:102ED0006173682E630000003000000045464C41DD
:102EE000534820415353455254204641494C454490
:102EF0003A2025732C2066696C652025732C206C84
:102F0000696E652025640A006F726967696E616C7D
:102F10005F7374617475733A25642C206E65775FF6
:102F20007374617475733A25640A00002DE9F047E3
:102F300006460C46174698464FF000094246394669
:102F40002046FFF7BBFD0546681C10B90020BDE810
:102F5000F08761197019042207F0D6F981464846B6
:102F6000F5E738B502460B4600BF4FF6FF700090FC
:102F700000BF13E012F8014B6846057885EA0401AA
:102F800081EA0115E9B205882D1285EA012585EA55
:102F9000C10585EA2115058000BF00BF181EA3F1F9
:102FA00001018BB2E6D1BDF8000038BD0146114ADF
:102FB00012884A434FF0E0235A6100229A611A4670
:102FC000126942F001021A6100BF4FF0E02210695D
:102FD00000F001021AB100F48032002AF5D04FF05F
:102FE000E022126922F001024FF0E0231A61002270
:102FF0009A6170472A0000202DE9F04F89B0D8A0CF
:1030000007F04CFBDAA0FEF7FDF92A200390A1207F
:10301000039906F031FFF8B904AB05AA06A9A1206F
:1030200005F02CFE80B99DF8100003280CD19DF806
:103030001400012808D19DF818100398814203D18B
:10304000D9A007F0F5FA0DE0DFA007F0E1FA4FF0A4
:10305000FF3009B0BDE8F08FE3A007F0D9FA4FF0D8
:10306000FF30F6E76FF077084146AB2006F096FE9A
:10307000E0B904AB05AA06A9AB2005F0FFFD78B9BD
:103080009DF8100004280BD19DF81400012807D1E9
:103090009DF91800404503D1DAA007F0C9FA0BE00A
:1030A000E0A007F0B5FA4FF0FF30D2E7E5A007F057
:1030B000AFFA4FF0FF30CCE740F2D2494946A320A7
:1030C00006F0BEFEE0B904AB05AA06A9A32005F0F0
:1030D000D5FD78B99DF8100005280BD19DF8140096
:1030E000022807D1BDF81800484503D1DCA007F03D
:1030F0009FFA0BE0E2A007F08BFA4FF0FF30A8E751
:10310000E8A007F085FA4FF0FF30A2E7DFF8B0A3A0
:103110005146AC2006F026FEE0B904AB05AA06A98C
:10312000AC2005F0ABFD78B99DF8100006280BD156
:103130009DF81400022807D1BDF91800504503D1AD
:10314000E0A007F075FA0BE0E6A007F061FA4FF097
:10315000FF307EE7EBA007F05BFA4FF0FF3078E737
:10316000DFF8BCB35946AD2006F073FED8B904AB06
:1031700005AA06A9AD2005F081FD70B99DF81000E3
:1031800007280AD19DF81400042806D1069858454E
:1031900003D1E4A007F04CFA0BE0EAA007F038FAFC
:1031A0004FF0FF3055E7F0A007F032FA4FF0FF3054
:1031B0004FE7DB4840420290A420029906F0DBFD75
:1031C000E0B904AB05AA06A9A42005F057FD78B91B
:1031D0009DF8100008280BD19DF81400042807D191
:1031E00006990298814203D1E6A007F021FA0BE08C
:1031F000ECA007F00DFA4FF0FF302AE7F1A007F03E
:1032000007FA4FF0FF3024E7C54CE41C00252246A6
:103210002B46AE2006F026FEF0B904AB05AA06A99F
:10322000AE2005F02BFD88B99DF8100009280DD1BE
:103230009DF81400082809D1DDE9060160406940C5
:10324000084303D1E6A007F0F3F90BE0ECA007F088
:10325000DFF94FF0FF30FCE6F2A007F0D9F94FF0AC
:10326000FF30F6E6AE4EF643771532463B46AF20CA
:1032700006F08AFDF0B904AB05AA06A9AF2005F057
:10328000FDFC88B99DF810000A280DD19DF81400A6
:10329000082809D1DDE9060170407940084303D1CF
:1032A000E7A007F0C5F90BE0EDA007F0B1F94FF08A
:1032B000FF30CEE6F2A007F0ABF94FF0FF30C8E6E2
:1032C000F6A00190A520019906F072FD08BB04ABA1
:1032D00005AA06A9A52005F0D1FCA0B99DF810000B
:1032E0000B2810D10198FCF765FF401C9DF81410C5
:1032F000884208D106A80199FCF763FF18B9E9A034
:1033000007F096F90BE0EFA007F082F94FF0FF30DD
:103310009FE6F5A007F07CF94FF0FF3099E6F9A0A1
:103320000068009004226946A62006F0EFFCA8B9C8
:1033300004AB05AA06A9A62005F0A0FC78B99DF863
:1033400010000C280BD19DF81400042807D104228A
:10335000694606A8FCF743FF08B9D5E1DEE1D7E1ED
:1033600042617369632041504920546573740000C1
:1033700054657374696E6720626173696320736555
:10338000742F676574206F7065726174696F6E73F6
:1033900020666F7220616C6C2064617461207479A6
:1033A0007065732E2E2E0A00626173696320726548
:1033B00061642F77726974652028746573745F7512
:1033C000696E743829000000626173696320726558
:1033D00061646261636B206D69736D617463682001
:1033E0002875696E74382900626173696320777289
:1033F000697465206661696C6564202875696E74FE
:1034000038290000626173696320726561642F77F7
:10341000726974652028746573745F696E743829E5
:10342000000000006261736963207265616462611B
:10343000636B206D69736D617463682028696E74B5
:1034400038290000626173696320777269746520AE
:103450006661696C65642028696E74382900000013
:10346000626173696320726561642F777269746544
:103470002028746573745F75696E74313629000095
:10348000626173696320726561646261636B206D60
:1034900069736D61746368202875696E74313629AB
:1034A00000000000626173696320777269746520AF
:1034B0006661696C6564202875696E74313629000F
:1034C0002EFBFFFF626173696320726561642F7771
:1034D000726974652028746573745F696E7431361F
:1034E0002900000062617369632072656164626132
:1034F000636B206D69736D617463682028696E74F5
:1035000031362900626173696320777269746520BE
:103510006661696C65642028696E74313629000023
:1035200050D41200626173696320726561642F7701
:10353000726974652028746573745F75696E74337D
:10354000322900006261736963207265616462619F
:10355000636B206D69736D61746368202875696E93
:10356000743332290000000062617369632077724E
:10357000697465206661696C6564202875696E747C
:1035800033322900626173696320726561642F7749
:10359000726974652028746573745F696E74333260
:1035A0002900000062617369632072656164626171
:1035B000636B206D69736D617463682028696E7434
:1035C0003332290062617369632077726974652000
:1035D0006661696C65642028696E74333229000065
:1035E000626173696320726561642F7772697465C3
:1035F0002028746573745F75696E74363429000011
:10360000626173696320726561646261636B206DDE
:1036100069736D61746368202875696E7436342926
:10362000000000006261736963207772697465202D
:103630006661696C6564202875696E74363429008A
:10364000626173696320726561642F777269746562
:103650002028746573745F696E7436342900000025
:10366000626173696320726561646261636B206D7E
:1036700069736D617463682028696E74363429003B
:103680006261736963207772697465206661696C31
:1036900065642028696E74363429000048656C6CB6
:1036A0006F000000626173696320726561642F7747
:1036B000726974652028746573745F737472696EBF
:1036C00067290000626173696320726561646261E9
:1036D000636B206D69736D61746368202873747205
:1036E000696E672900000000626173696320777268
:1036F000697465206661696C6564202873747269F9
:103700006E672900AABBCCDD0BA006F091FF0BE091
:1037100010A006F07DFF4FF0FF309AE415A006F0F0
:1037200077FF4FF0FF3094E40021AFF2CC3006F089
:103730008FFF00208DE40000626173696320726571
:1037400061642F77726974652028746573745F688B
:1037500065782900626173696320726561646261E2
:10376000636B206D69736D61746368202868657888
:1037700029000000626173696320777269746520B3
:103780006661696C6564202868657829000000001E
:10379000F0B591B087A006F081FF89A0FDF732FE59
:1037A0000A254FF47A76944F94A103C9CDE90F010D
:1037B00094A000680E902946A22006F05DFB3146D9
:1037C000A32006F03DFB3946A42006F0D4FA0FA949
:1037D000A52006F0EDFA04220EA9A62006F096FA1E
:1037E000012408AB09AA0AA9A22005F047FA20B1D2
:1037F0000024A22184A0FDF705FE9DF828000A28D8
:1038000009D000249DF8281085A0FDF7FBFDA2211A
:1038100089A0FDF7F7FD08AB09AA0AA9A32005F0C6
:103820002DFA20B10024A32177A0FDF7EBFDBDF810
:103830002800B0F57A7F09D00024BDF8281082A0B6
:10384000FDF7E0FDA3217CA0FDF7DCFD08AB09AA94
:103850000AA9A42005F012FA20B10024A4216AA02C
:10386000FDF7D0FD64490A98884208D000247CA066
:103870000A99FDF7C7FDA4216FA0FDF7C3FD08ABB2
:1038800009AA0AA9A52005F0F9F920B10024A5216B
:103890005DA0FDF7B7FD59A10AA8FCF792FC40B165
:1038A00000240AA974A0FDF7ADFDA52162A0FDF7D3
:1038B000A9FD08AB09AA0AA9A62005F0DFF920B1E5
:1038C0000024A62150A0FDF79DFD04220EA90AA800
:1038D000FCF785FC80B100249DF82B0000909DF83A
:1038E0002A309DF829209DF828106A48FDF78AFDA6
:1038F000A62151A0FDF786FD1CB167A006F098FE39
:1039000006E065A006F084FE4FF0FF3011B0F0BD78
:10391000002007900690059003900490029008AB59
:1039200009AA07A9A22005F0A9F908AB09AA06A9C6
:10393000A32005F0A3F908AB09AA05A9A42005F066
:103940009DF908AB09AA03A9A52005F097F908ABD2
:1039500009AA02A9A62005F091F99DF81C000A28E1
:1039600015D1BDF81800B0F57A7F10D1224905981D
:1039700088420CD121A103A8FCF723FC38B904220A
:103980000EA902A8FCF72BFC08B9012000E00020DA
:1039900004461CB148A006F04BFE05E046A006F028
:1039A00037FE4FF0FF30B1E7002102A006F050FED5
:1039B0000020ABE7426174636820546573740000B3
:1039C00054657374696E67206261746368206F70F8
:1039D00065726174696F6E7320616E6420646174D6
:1039E000612073796E6368726F6E697A6174696F52
:1039F0006E2E2E2E0A00000078ECFFFF54657374C3
:103A000053747200DEADBEEF676574206661696C49
:103A1000656420666F72206B65792025640A00005A
:103A20006578706563743A2031302C206765743A8C
:103A30002025640A000000006572726F7220706FAA
:103A4000733A2025640A00006578706563743A2033
:103A5000313030302C206765743A2025640A00002C
:103A60006578706563743A202D353030302C2067CE
:103A700065743A2025640A006578706563743A209D
:103A8000546573745374722C206765743A202573DF
:103A90000A00000020AD0008626174636820737939
:103AA0006E632074657374207661726961626C65FF
:103AB000732D3E4B5600000072657665727365206B
:103AC00073796E63204B562D3E7465737420766156
:103AD000726961626C65730010B588B03CA006F035
:103AE000DDFD3FA0FDF78EFC0124002004E000F185
:103AF000AA0105AA1154401C0A28F8DB0A2205A9CC
:103B0000A62006F003F9002819D16B4601AA02A9E4
:103B1000A62005F0B3F868B99DF804000A2809D179
:103B20000A2202A905A8FCF75AFB18B938A006F02A
:103B30007FFD08E03EA006F06BFD002403E047A0F7
:103B400006F066FD002455208DF814009DF8141031
:103B5000A12006F091F9B8B96B4601AA02A9A120EB
:103B600005F08CF858B99DF80400012807D19DF89C
:103B70000800552803D143A006F05AFD08E048A0EC
:103B800006F046FD002403E04FA006F041FD0024AE
:103B9000002205A9A62006F0B9F818B153A006F036
:103BA00047FD03E05BA006F033FD00241CB165A0D7
:103BB00006F03EFD06E06CA006F02AFD4FF0FF3057
:103BC00008B010BD002102A006F042FD0020F7E77A
:103BD000426F756E646172792054657374000000E1
:103BE00054657374696E67206D6178696D756D20B9
:103BF0006C656E67746820616E6420626F756E64B8
:103C00006172792076616C7565732E2E2E0A000024
:103C1000626F756E646172792074657374202D20F3
:103C20006D6178206C656E677468206461746100F2
:103C3000626F756E646172792074657374202D20D3
:103C40006D6178206C656E677468206461746120B2
:103C5000726561646261636B00000000626F756E83
:103C6000646172792074657374202D206D617820F1
:103C70006C656E6774682064617461207772697422
:103C800065000000626F756E6461727920746573FF
:103C900074202D2031206279746520646174610084
:103CA000626F756E646172792074657374202D2063
:103CB0003120627974652064617461207265616489
:103CC0006261636B00000000626F756E64617279FF
:103CD0002074657374202D2031206279746520640E
:103CE000617461207772697465000000626F756E9F
:103CF000646172792074657374202D207A65726F07
:103D0000206C656E6774682072656A656374696F9C
:103D10006E000000626F756E646172792074657365
:103D200074202D207A65726F206C656E6774682030
:103D300073686F756C642062652072656A65637470
:103D400065640000626F756E6461727920746573DA
:103D500074202D20616C6C20746573747320706105
:103D60007373656400000000626F756E6461727940
:103D7000207465737400000010B50CA006F08EFC72
:103D80000FA0FDF73FFB0F24002C03DD18A006F069
:103D90004FFC05E01DA006F03BFC4FF0FF3010BDCE
:103DA000002102A006F054FC0020F8E74461746191
:103DB00020536F75726365205465737400000000B2
:103DC00054657374696E67206461746120736F75E4
:103DD00072636520747261636B696E6720616E64E3
:103DE0002064656661756C74732E2E2E0A000000C7
:103DF00064656661756C7473207461626C652061C2
:103E00007661696C61626C650000000064656661E2
:103E1000756C7473207461626C65206D697373696D
:103E20006E6700002DE9F04FA9B0EAA006F036FC5D
:103E3000EFA0FDF7E7FA01277822F74905A8FCF77C
:103E400095F94FF0060800243CE14FF0FF394FF0A0
:103E5000000A04EB840005A901EB800040780228E9
:103E600030D0032804D0052810D0082838D11BE012
:103E700004EB840205AB03EB8202117C04EB8402A9
:103E800013F8220005F0F8FF81462CE004EB8402D1
:103E900005AB03EB8202118A04EB840213F82200C3
:103EA00005F0CEFF81461EE004EB840205AB03EB78
:103EB0008202116904EB840213F8220005F05BFF13
:103EC000814610E004EB840205AB03EB820211692A
:103ED00004EB840213F8220005F00FFF814602E094
:103EE0004FF0FF3900BF00BFB9F1000F73D104EBF1
:103EF000840105AA12F8210023AB24AA25A904F005
:103F0000BDFE002868D104EB840105AA02EB810103
:103F1000487804F0FBFF06469DF89000102812D95F
:103F20001020009004EB840005AB13F8202004EB74
:103F3000840003EB80009DF890304168B748FDF79E
:103F400061FA0027BDE09DF89000B0427FD104EBFC
:103F5000840005A901EB800040789DF88C10884210
:103F600075D104EB840005A901EB8000407802289C
:103F700036D0032804D0052811D0082841D11FE0ED
:103F80009DF8940004EB840105AA02EB8101097CF1
:103F9000884201D1012000E00020824634E02598CB
:103FA000029004EB840005A901EB8000008ABDF8B3
:103FB0000810884201D1012000E00020824623E061
:103FC000259804EB840105AA02EB8101096981426D
:103FD00003D1012102E065E055E000218A4613E0AB
:103FE000DDF894B004EB840005AA02EB80000169BF
:103FF0005846FCF7EBF901D1012000E00020824691
:1040000002E04FF0000A00BF00BFBAF1000F0DD070
:1040100004EB840005AB13F8202004EB840003EBD1
:10402000800041687EA0FDF7EDF92BE004EB8400F1
:1040300005AB13F8202004EB840003EB80004168FB
:1040400000E004E07FA0FDF7DDF900271AE004EBB3
:10405000840005A901EB800040789DF88C10CDE923
:104060000061029004EB840005AB13F8202004EB00
:10407000840003EB80009DF8903041687EA0FDF73E
:10408000C1F900271CE004EB840005AB13F82020E5
:1040900004EB840003EB8000416886A0FDF7B2F9D1
:1040A00000270DE004EB840005AB13F8202004EB9F
:1040B000840003EB8000416888A0FDF7A3F9002786
:1040C00000BF641C4445FFF6C0AE8FA52946A5205D
:1040D00005F06EFE90BB23AB24AA25A9A52004F011
:1040E000CDFD28BB9DF88C000B2811D12846FCF78C
:1040F00061F8401C9DF89010884209D1294625A8F6
:10410000FCF75FF820B9A52181A0FDF77BF91BE042
:104110002846FCF74FF8441C9DF88C00234600907D
:104120009DF89020A5218448FDF76CF900270BE04D
:10413000A52182A0FDF766F9002705E0FFE7A5218C
:1041400089A0FDF75FF9002793A103C9CDE9030119
:10415000052203A9A62005F0D9FD80BB23AB24AA24
:1041600025A9A62004F08AFD50BB9DF890001028D8
:1041700008D910239DF89020A6218948FDF742F91F
:1041800000273FE19DF88C000C280ED19DF890008F
:1041900005280AD1052225A903A8FCF720F820B993
:1041A000A62180A0FDF72EF92CE19DF88C309DF81A
:1041B0009020A6218548FDF725F9002722E106E099
:1041C000FFE7A62182A0FDF71DF900271AE1A6212D
:1041D00014E1000044617461205479706520436FDC
:1041E0006E73697374656E6379205465737400002F
:1041F00054657374696E6720747970652D73616698
:10420000652041504920636F6E73697374656E63F6
:10421000792E2E2E0A00000014A70008B4A9000869
:104220005B4F4B5D20257320746573742070617340
:1042300073656420666F72206B6579203078253055
:1042400032580A005B585D20257320746573742012
:104250006661696C656420666F72206B65792030D9
:1042600078253032583A2076616C7565206D697317
:104270006D617463680A00005B585D2025732074CB
:10428000657374206661696C656420666F72206B6B
:104290006579203078253032583A206C656E3D259E
:1042A000642F25642C20747970653D25642F256466
:1042B0000A0000005B585D2025732074657374202C
:1042C00072656164206661696C656420666F722046
:1042D0006B6579203078253032580A005B585D20B4
:1042E0002573207465737420777269746520666124
:1042F000696C656420666F72206B65792030782563
:104300003032580A000000005465737431323300B3
:104310005B4F4B5D20737472696E672074657374B4
:104320002070617373656420666F72206B657920FD
:104330003078253032580A0090AA00085B585D207A
:10434000737472696E67207465737420726561643A
:10435000206661696C656420666F72206B657920E8
:104360003078253032580A005B585D2073747269CA
:104370006E67207465737420777269746520666156
:10438000696C656420666F72206B657920307825D2
:104390003032580A00000000DEADBEEFCA00000057
:1043A00000AA00085B4F4B5D206865782074657338
:1043B000742070617373656420666F72206B657919
:1043C000203078253032580A000000004CAA00083E
:1043D0005B585D2068657820746573742072656130
:1043E00064206661696C656420666F72206B657914
:1043F000203078253032580A000000000BA0FDF76D
:1044000001F800271FB114A006F012F907E020A060
:1044100006F0FEF84FF0FF3029B0BDE8F08F002124
:10442000AFF2502006F014F90020F5E75B585D204C
:104430006865782074657374207772697465206686
:1044400061696C656420666F72206B6579203078D5
:10445000253032580A00000064617461207479705C
:104460006520636F6E73697374656E63792074651C
:104470007374202D20616C6C204150497320776F3C
:10448000726B696E6720636F72726563746C79001A
:1044900064617461207479706520636F6E736973F1
:1044A00074656E63792074657374202D20736F6D4D
:1044B000652041504973206661696C6564000000A5
:1044C00000B591B044A006F0E9F848A0FCF79AFFC7
:1044D0000CAB0DAA0EA9FF2004F0D0FB18B14FA021
:1044E00006F0A6F806E052A006F092F84FF0FF3072
:1044F00011B000BD1422544907A8FBF737FE07A9E5
:10450000FE2005F055FC18B150A006F091F805E02A
:1045100053A006F07DF84FF0FF30E9E7142102A820
:10452000FBF73DFE142202A9FD2005F0EFFB18B1B8
:1045300051A006F07DF805E054A006F069F84FF0B0
:10454000FF30D5E70CAB0DAA0021A12004F096FBAB
:1045500018B155A006F06CF805E058A006F058F820
:104560004FF0FF30C4E70021FC2005F021FC18B11A
:1045700059A006F05DF805E05CA006F049F84FF0A0
:10458000FF30B5E705220021FB2005F0BFFB18B185
:104590005CA006F04DF805E05EA006F039F84FF09B
:1045A000FF30A5E761A103C9CDE9000100226946FA
:1045B000FA2005F0ABFB18B15EA006F039F805E073
:1045C00062A006F025F84FF0FF3091E7002102A02D
:1045D00006F03EF800208BE74572726F722048614A
:1045E0006E646C696E6720546573740054657374EF
:1045F000696E67206572726F7220636F6E64697492
:10460000696F6E7320616E6420626F756E64617293
:10461000792063617365732E2E2E0A00696E7661B0
:104620006C6964206B6579206775617264000000B5
:10463000696E76616C6964206B65792073686F754B
:104640006C64206661696C0000A700086C6F6E677F
:1046500020737472696E6720677561726400000070
:104660006C6F6E6720737472696E672073686F7504
:104670006C64206661696C006F76657273697A6537
:104680002068657820677561726400006F766572D6
:1046900073697A65206865782073686F756C64202B
:1046A0006661696C000000006E756C6C20706F694B
:1046B0006E74657220677561726400006E756C6C53
:1046C00020706F696E7465722073686F756C6420FA
:1046D0006661696C000000006E756C6C207374720A
:1046E000696E672067756172640000006E756C6C9E
:1046F00020737472696E672073686F756C642066CE
:1047000061696C006E756C6C2068657820677561F6
:10471000726400006E756C6C206865782073686F39
:10472000756C64206661696C00000000010203047E
:10473000050000007A65726F206C656E67746820F2
:104740006865782067756172640000007A65726F31
:10475000206C656E677468206865782073686F7573
:104760006C64206661696C002DE9F0438DB086A011
:1047700005F094FF88A0FCF745FE00270F260025D2
:10478000F6E0002008E005EBC50101EB051100EBA8
:10479000810108AA1154401C1028F4DB0024BEE05B
:1047A0004FF0FF38884800EB0410407B0D2876D28C
:1047B000DFE800F0971C7607112B37434E596781CD
:1047C0008D009DF82010804A02EB0412107905F04C
:1047D00053FB804688E09DF8202051B27A4A02EBD4
:1047E0000412107905F0DAFA80467DE09DF8202069
:1047F0000AB1012200E000221146734A02EB0412C2
:10480000107905F06FFA80466EE0089801906E49C5
:1048100001EB04110879BDF8041005F011FB804686
:1048200062E008980190684901EB04110879BDF92C
:10483000041005F097FA804656E0DDF820906249B2
:1048400001EB04110879494605F003FB80464BE073
:10485000DDF820905C4901EB04110879494605F028
:104860008AFA804640E0DDE90801CDE900015649B9
:1048700001EB04110879DDE9002305F0F3FA804625
:1048800032E0DDE90801CDE900014F4901EB0411F7
:104890000879DDE9002305F077FA804624E020E07E
:1048A000DDF82090484901EB04110879494605F0EC
:1048B00024FA804618E000208DF82900424901EBD7
:1048C0000411087908A905F073FA80460CE03E4906
:1048D00001EB041108790A2208A905F017FA8046AD
:1048E00002E04FF0FF3800BF00BFB8F1000F15D055
:1048F000354800EB0410407B0090334800EB041077
:104900000379314800EB0410027929462F48FCF75F
:1049100079FD4FF0FF300DB0BDE8F083641CB44268
:10492000FFF63EAF002415E0274901EB041108799A
:1049300002AB03AA04A904F0A1F950B1224800EB8C
:1049400004100279294622A0FCF75CFD4FF0FF30ED
:10495000E1E7641CB442E7DB7F1C052095FBF0F126
:1049600000FB115018B9294625A0FCF74BFD6D1C22
:10497000142DFFF606AF2CA005F05AFE002102A070
:1049800005F066FE0020C6E7474320537472657346
:10499000732054657374000054657374696E6720E6
:1049A0006D756C7469706C652067617262616765B2
:1049B00020636F6C6C656374696F6E206379636CE0
:1049C00065732E2E2E0A000070000020D8AA000861
:1049D0004743207374726573732074657374207217
:1049E000656164206661696C656420617420726F22
:1049F000756E642025642C206B65792025640A007F
:104A000047432073747265737320746573742070E8
:104A1000726F67726573733A20726F756E642025CA
:104A2000642F32300A0000004743207374726573AC
:104A3000732074657374202D20323020726F756E70
:104A4000647320636F6D706C6574656400000000B2
:104A50002DE9F04F89B0E2A005F020FEE6A0FCF7BA
:104A6000D1FC4FF00F0B002596E100248BE1EF48BD
:104A700000EB041090F804A0EC4800EB041090F850
:104A80000D904FF0FF36B9F10D0F75D2DFE809F048
:104A90007407E922374C637C9FC2F1E7E60005EB1F
:104AA000850004EB4000C7B20FB1012000E00020F8
:104AB0000146504605F016F9064656B123462A46E9
:104AC0005146DBA0FCF79EFC4FF0FF3009B0BDE87B
:104AD000F08F56E105EB850004EB4000C7B2394684
:104AE000504605F0C9F9064646B123462A465146C6
:104AF000DEA0FCF787FC4FF0FF30E7E741E105EB74
:104B0000850004EB400047B23946504605F046F9AF
:104B1000064646B123462A465146E3A0FCF772FCFE
:104B20004FF0FF30D2E72CE16420684304EB8401AE
:104B300000EB410087B23946504605F081F9064640
:104B400046B123462A465146E6A0FCF75BFC4FF0EF
:104B5000FF30BBE715E16420684304EB840100EB00
:104B6000410007B23946504605F0FCF8064656B1FA
:104B700023462A46514600E0FCE0E9A0FCF742FC4F
:104B80004FF0FF30A2E7FCE04FF47A70684304EB8B
:104B9000C40101EB041100EB810020F00047204626
:104BA00004EBD0714910A4EB410101B97F423946B1
:104BB000504605F04EF9064646B123462A46514670
:104BC000E6A0FCF71FFC4FF0FF307FE7D9E04FF481
:104BD0007A70684304EBC40101EB041100EB81001F
:104BE00020F00047204604EBD0714910A4EB4101AE
:104BF00001B97F423946504605F0BDF8064646B138
:104C000023462A465146E4A0FCF7FCFB4FF0FF3058
:104C10005CE7B6E04FF47A70684304EBC40101EB43
:104C2000041100EB810020F000404FEAE0780746D5
:104C3000204604EBD0714910A4EB410119B90022C0
:104C40007F4262EB08083A464346504605F00AF9AF
:104C500006466EB123462A46514603E06AE052E01A
:104C600007E030E0DBA0FCF7CDFB4FF0FF302DE795
:104C700087E04FF47A70684304EBC40101EB041140
:104C800000EB810020F000404FEAE0780746204624
:104C900004EBD0714910A4EB410119B900227F4205
:104CA00062EB08083A464346504605F06DF8064662
:104CB00046B123462A465146D5A0FCF7A3FB4FF048
:104CC000FF3003E75DE02046FBF75EFBDF49029023
:104CD000FBF7EAFA80462846FBF756FB414603906D
:104CE000FBF78AFA07463946504605F006F80646AD
:104CF00046B123462A465146D5A0FCF783FB4FF028
:104D0000FF30E3E63DE02B46E0A20A2101A8009433
:104D1000FCF788FB01A9504605F04AF8064646B163
:104D200023462A465146DBA0FCF76CFB4FF0FF30D0
:104D3000CCE626E0E8B28DF80C00E0B28DF80D006C
:104D40002819C0B28DF80E0005FB04F0C0B28DF832
:104D50000F00042203A9504604F0D8FF064646B1CE
:104D600023462A465146DAA0FCF74CFB4FF0FF30B1
:104D7000ACE606E04946E5A0FCF744FB4FF0FF3007
:104D8000A4E600BF641C5C45FFF671AE0622691CF8
:104D9000E3A0FCF737FB6D1C062DFFF666AE04ABF7
:104DA00005AA06A9A12003F069FF98B99DF814008F
:104DB000012803D1E6A005F03BFC03E20A229DF89E
:104DC0001410EAA0FCF71EFBF5A005F021FC4FF043
:104DD000FF307BE6F7A005F01BFC4FF0FF3075E6D7
:104DE0004761726261676520436F6C6C65637469CB
:104DF0006F6E20546573740054657374696E672018
:104E00006761726261676520636F6C6C656374696A
:104E10006F6E2062792066696C6C696E67207365BD
:104E200063746F72732E2E2E0A0000007000002033
:104E30005B585D20474320746573743A204661696E
:104E40006C656420746F20777269746520424F4FDF
:104E50004C206B65793D25642C20726F756E643D26
:104E600025642C20693D25640A0000005B585D2004
:104E7000474320746573743A204661696C65642009
:104E8000746F2077726974652055494E5438206BD1
:104E900065793D25642C20726F756E643D25642C08
:104EA00020693D25640A00005B585D20474320745B
:104EB0006573743A204661696C656420746F20776D
:104EC0007269746520494E5438206B65793D2564BC
:104ED0002C20726F756E643D25642C20693D25641D
:104EE0000A0000005B585D20474320746573743AE4
:104EF000204661696C656420746F207772697465FF
:104F00002055494E543136206B65793D25642C205F
:104F1000726F756E643D25642C20693D25640A001E
:104F20005B585D20474320746573743A204661697D
:104F30006C656420746F20777269746520494E54E3
:104F40003136206B65793D25642C20726F756E6457
:104F50003D25642C20693D25640A00005B585D20D6
:104F6000474320746573743A204661696C65642018
:104F7000746F2077726974652055494E543332201E
:104F80006B65793D25642C20726F756E643D2564D8
:104F90002C20693D25640A005B585D20474320743E
:104FA0006573743A204661696C656420746F20777C
:104FB0007269746520494E543332206B65793D2502
:104FC000642C20726F756E643D25642C20693D252C
:104FD000640A00005B585D20474320746573743A8F
:104FE000204661696C656420746F2077726974650E
:104FF0002055494E543634206B65793D25642C206C
:10500000726F756E643D25642C20693D25640A002D
:105010005B585D20474320746573743A204661698C
:105020006C656420746F20777269746520494E54F2
:105030003634206B65793D25642C20726F756E6463
:105040003D25642C20693D25640A0000CDCCCC3D73
:105050005B585D20474320746573743A204661694C
:105060006C656420746F20777269746520464C4FBC
:105070004154206B65793D25642C20726F756E64F8
:105080003D25642C20693D25640A000052256449B1
:10509000256400005B585D20474320746573743AB3
:1050A000204661696C656420746F2077726974654D
:1050B00020535452494E47206B65793D25642C207E
:1050C000726F756E643D25642C20693D25640A006D
:1050D0005B585D20474320746573743A20466169CC
:1050E0006C656420746F2077726974652048455838
:1050F000206B65793D25642C20726F756E643D25AB
:10510000642C20693D25640A00000000756E6B6EFA
:105110006F776E20747970653A2025640A0000006C
:105120002D2D2D2D2D2D2D47617262616765204338
:105130006F6C6C656374696F6E2054657374207056
:10514000726F67726573733A2025642F25640A00B5
:105150006763207265616461626C65206166746575
:105160007220707265737375726500006275666691
:105170006572206F766572666C6F7720696E206746
:105180006320746573742C206C656E3A25642C2042
:105190006275665F73697A653A25640A00000000EB
:1051A000676320627566666572206F766572666CED
:1051B0006F77000067632072656164206661696CC7
:1051C000656400000021AFF2E83005F041FA0020EC
:1051D0007CE400002DE9F04F8BB047A005F05EFAAB
:1051E0004AA0FCF70FF96425002004E000F1AA01B1
:1051F00008AA1154401C0A28F8DBFBF731FD0446CD
:1052000000270FE03846F91707EB91718910A7EBDB
:105210008101A13101F0FF080A2208A9404604F0EB
:1052200075FD7F1CAF42EDDBFBF71AFD8246AAEB52
:105230000406FBF715FD0446002710E03846F91771
:1052400007EB91718910A7EB8101A13101F0FF08F3
:1052500003AB04AA05A9404603F010FD7F1CAF4232
:10526000ECDBFBF7FDFC8246AAEB040930A0FCF75F
:10527000C9F82846FBF788F802903046FBF78DF80E
:1052800001900299FBF742F88346FBF78BF8324610
:10529000CDE9000129462DA0FCF7B4F82846FBF71C
:1052A00073F802904846FBF778F801900299FBF7F3
:1052B0002DF88346FBF776F84A46CDE900012946EA
:1052C0002EA0FCF79FF842F21070864206D24010E2
:1052D000814503D235A005F0ABF907E038A005F011
:1052E00097F94FF0FF300BB0BDE8F08F002102A01E
:1052F00005F0AEF90020F6E7506572666F726D61D9
:105300006E63652054657374000000005465737407
:10531000696E6720726561642F77726974652070A9
:105320006572666F726D616E63652E2E2E0A0000C7
:10533000506572666F726D616E636520746573741B
:1053400020726573756C74733A0A000020205772DE
:105350006974653A202564206F7065726174696FA5
:105360006E7320696E20256C75206D732028252EA4
:105370003266206D732F6F70290A0000202052655D
:1053800061643A20202564206F7065726174696FD2
:105390006E7320696E20256C75206D732028252E74
:1053A0003266206D732F6F70290A00007065726677
:1053B0006F726D616E636520746573740000000028
:1053C000706572666F726D616E636520746573746B
:1053D000202D20746F6F20736C6F7700F0B58BB049
:1053E00045A005F05BF94AA0FCF70CF800250A2659
:1053F000002469E0002006E004EB840100EB410199
:1054000006AA1154401C0A28F6DB9DF81810A120AA
:1054100004F032FDBDF91810AC2004F0A3FC0A2200
:1054200006A9A62004F072FC05F04EF9002845D12B
:1054300001276B4601AA02A9A12003F01FFC68B94D
:105440009DF80400012809D19DF818009DF8081066
:10545000884203D19DF80000032800D000276B4646
:1054600001AA02A9AC2003F009FC68B99DF8040068
:10547000022809D1BDF91800BDF90810884203D1EE
:105480009DF80000062800D000276B4601AA02A95B
:10549000A62003F0F3FB68B99DF804000A2809D19F
:1054A0000A2202A906A8FAF79AFE18B99DF8000088
:1054B0000C2800D0002707B16D1C00BF3246611CCC
:1054C0001EA0FBF79FFF641CB44293DBB54203D1DF
:1054D00024A005F0ADF808E0324629462EA0FBF7DF
:1054E00091FF4FF0FF300BB0F0BD002102A005F09E
:1054F000AFF80020F7E70000506F776572204C6F1F
:105500007373205374726573732054657374000051
:1055100054657374696E6720706F776572206C6F65
:105520007373207265636F76657279207363656E3D
:105530006172696F732E2E2E0A000000506F77651E
:1055400072206C6F7373207374726573732074654B
:1055500073742070726F67726573733A2025642FBD
:1055600025640A00706F776572206C6F7373207307
:1055700074726573732074657374202D20616C6C74
:10558000207265636F7665726965732073756363F6
:1055900065737366756C00004641494C202D207080
:1055A0006F776572206C6F73732073747265737399
:1055B00020746573743A2025642F25642072656316
:1055C0006F7665726965732073756363657373665F
:1055D000756C0A002DE9F04190B05DA005F05EF811
:1055E0005FA0FBF70FFF66A0FBF70CFF0F2440F254
:1055F000DC55714E71A2D2E900109268CDE90E021D
:105600000D9171A000680C902146A12004F034FC9B
:1056100030B16EA0FBF7F6FE701310B0BDE8F0815C
:10562000A122214675A0FBF7EDFE2946A72004F034
:1056300007FC28B17BA0FBF7E5FE4FF0FF30ECE75D
:10564000A722294683A0FBF7DDFE3146A82004F0FF
:1056500092FB28B189A0FBF7D5FE4FF0FF30DCE7C5
:10566000A822314691A0FBF7CDFE0DA9A52004F09C
:105670009FFB28B197A0FBF7C5FE4FF0FF30CCE7AA
:10568000A5220DA99FA0FBF7BDFE04220CA9A62010
:1056900004F03CFB28B1A5A0FBF7B4FE4FF0FF30AF
:1056A000BBE7A6219DF83300CDE900019DF832301B
:1056B0009DF831209DF83010A748FBF7A3FEA748BE
:1056C000FBF7A0FEA6A0FBF79DFEB4A0FBF79AFE99
:1056D00004F0FAFF28B1C0A0FBF794FE4FF0FF30B2
:1056E0009BE7CDA0FBF78EFED7A0FBF78BFE002734
:1056F000002009900AAB0BAA09A9A12003F0BEFA69
:1057000028B1A121DFA0FBF77DFE01270EE29DF865
:105710002800032807D09DF828200321E3A0FBF7E9
:1057200071FE012702E29DF82C00012807D09DF8A8
:105730002C200121EAA0FBF765FE0127F6E19DF888
:105740002400A04203D09DF824202146E4E1E8E1B2
:10575000506F776572204C6F7373205465737400BB
:1057600054657374696E6720706F776572206C6F13
:105770007373207265636F766572792E2E2E0A0020
:105780000A2D2D2D20506861736520313A20577203
:105790006974696E67207465737420646174612034
:1057A0006265666F726520706F776572206C6F73CB
:1057B00073202D2D2D0A0000B4E2FFFF506F776596
:1057C000724F666600000000CAFEBABE5B585D20DC
:1057D0004661696C656420746F2077726974652016
:1057E00055494E5438206265666F726520706F7738
:1057F0006572206C6F73730A000000005B4F4B5D95
:10580000205772697474656E2055494E54383D2591
:105810006420746F206B6579203078253032580A07
:10582000000000005B585D204661696C656420746F
:105830006F2077726974652055494E543136206265
:1058400065666F726520706F776572206C6F737319
:105850000A0000005B4F4B5D205772697474656EDF
:105860002055494E5431363D256420746F206B65B8
:1058700079203078253032580A0000005B585D20CE
:105880004661696C656420746F2077726974652065
:10589000494E543332206265666F726520706F77AF
:1058A0006572206C6F73730A000000005B4F4B5DE4
:1058B000205772697474656E20494E5433323D2509
:1058C0006420746F206B6579203078253032580A57
:1058D000000000005B585D204661696C65642074BF
:1058E0006F20777269746520535452494E47206285
:1058F00065666F726520706F776572206C6F737369
:105900000A0000005B4F4B5D205772697474656E2E
:1059100020535452494E473D2725732720746F204A
:105920006B6579203078253032580A005B585D204D
:105930004661696C656420746F20777269746520B4
:10594000484558206265666F726520706F77657292
:10595000206C6F73730A0000A4A8000818A8000840
:105960000A2D2D2D20506861736520323A2053692D
:105970006D756C6174696E6720706F776572206CED
:105980006F737320616E642073797374656D207218
:1059900065626F6F74202D2D2D0A0000E29AA12000
:1059A000506F776572206C6F73732073696D756CBF
:1059B0006174696F6E3A205265696E697469616CD1
:1059C000697A696E6720666C617368207379737495
:1059D000656D2E2E2E0A00005B585D2043524954FF
:1059E0004943414C3A20466C617368207265696E88
:1059F000697469616C697A6174696F6E2066616946
:105A00006C656420616674657220706F77657220C2
:105A10006C6F7373210A00005B4F4B5D20466C6115
:105A200073682073797374656D207265696E69742B
:105A300069616C697A656420737563636573736605
:105A4000756C6C790A0000000A2D2D2D20506861BC
:105A5000736520333A20566572696679696E6720EE
:105A600064617461207265636F7665727920616626
:105A700074657220706F776572206C6F7373202D60
:105A80002D2D0A005B585D2055494E54383A20466A
:105A900061696C656420746F2072656164206B6558
:105AA00079203078253032580A0000005B585D209C
:105AB00055494E54383A2054797065206D69736D9C
:105AC00061746368202D2065787065637465643D3A
:105AD00025642C2061637475616C3D25640A0000A7
